{
  "contractName": "Cplayer",
  "abi": [
    {
      "inputs": [],
      "payable": false,
      "stateMutability": "nonpayable",
      "type": "constructor"
    },
    {
      "constant": true,
      "inputs": [],
      "name": "admin",
      "outputs": [
        {
          "internalType": "address",
          "name": "",
          "type": "address"
        }
      ],
      "payable": false,
      "stateMutability": "view",
      "type": "function"
    },
    {
      "constant": false,
      "inputs": [
        {
          "internalType": "string",
          "name": "_name",
          "type": "string"
        },
        {
          "internalType": "uint256",
          "name": "_phonenumber",
          "type": "uint256"
        }
      ],
      "name": "addPlayer",
      "outputs": [
        {
          "internalType": "bool",
          "name": "",
          "type": "bool"
        }
      ],
      "payable": false,
      "stateMutability": "nonpayable",
      "type": "function"
    },
    {
      "constant": true,
      "inputs": [
        {
          "internalType": "address",
          "name": "_address",
          "type": "address"
        }
      ],
      "name": "findPlayer",
      "outputs": [
        {
          "internalType": "string",
          "name": "",
          "type": "string"
        },
        {
          "internalType": "uint256",
          "name": "",
          "type": "uint256"
        },
        {
          "internalType": "address",
          "name": "",
          "type": "address"
        }
      ],
      "payable": false,
      "stateMutability": "view",
      "type": "function"
    },
    {
      "constant": true,
      "inputs": [
        {
          "internalType": "address",
          "name": "_address",
          "type": "address"
        }
      ],
      "name": "exist",
      "outputs": [
        {
          "internalType": "bool",
          "name": "",
          "type": "bool"
        }
      ],
      "payable": false,
      "stateMutability": "view",
      "type": "function"
    },
    {
      "constant": true,
      "inputs": [
        {
          "internalType": "address",
          "name": "_address",
          "type": "address"
        }
      ],
      "name": "getplayer",
      "outputs": [
        {
          "components": [
            {
              "internalType": "string",
              "name": "name",
              "type": "string"
            },
            {
              "internalType": "uint256",
              "name": "phoneNumber",
              "type": "uint256"
            },
            {
              "internalType": "address payable",
              "name": "Paddress",
              "type": "address"
            },
            {
              "internalType": "uint256",
              "name": "id",
              "type": "uint256"
            }
          ],
          "internalType": "struct Cplayer.player",
          "name": "",
          "type": "tuple"
        }
      ],
      "payable": false,
      "stateMutability": "view",
      "type": "function"
    },
    {
      "constant": false,
      "inputs": [
        {
          "internalType": "address",
          "name": "_address",
          "type": "address"
        },
        {
          "internalType": "uint256",
          "name": "_id",
          "type": "uint256"
        }
      ],
      "name": "editPlayer",
      "outputs": [
        {
          "internalType": "bool",
          "name": "",
          "type": "bool"
        }
      ],
      "payable": false,
      "stateMutability": "nonpayable",
      "type": "function"
    },
    {
      "constant": false,
      "inputs": [
        {
          "internalType": "string",
          "name": "_name",
          "type": "string"
        },
        {
          "internalType": "uint256",
          "name": "_phonenumber",
          "type": "uint256"
        },
        {
          "internalType": "address payable",
          "name": "_address",
          "type": "address"
        },
        {
          "internalType": "uint256",
          "name": "_id",
          "type": "uint256"
        }
      ],
      "name": "editPlayer",
      "outputs": [
        {
          "internalType": "bool",
          "name": "",
          "type": "bool"
        }
      ],
      "payable": false,
      "stateMutability": "nonpayable",
      "type": "function"
    },
    {
      "constant": false,
      "inputs": [
        {
          "internalType": "address",
          "name": "_address",
          "type": "address"
        }
      ],
      "name": "removePlayer",
      "outputs": [
        {
          "internalType": "bool",
          "name": "",
          "type": "bool"
        }
      ],
      "payable": false,
      "stateMutability": "nonpayable",
      "type": "function"
    }
  ],
  "bytecode": "0x608060405234801561001057600080fd5b50336000806101000a81548173ffffffffffffffffffffffffffffffffffffffff021916908373ffffffffffffffffffffffffffffffffffffffff160217905550611008806100606000396000f3fe608060405234801561001057600080fd5b50600436106100885760003560e01c806393a216271161005b57806393a216271461014d578063a817f6681461017d578063e3404d58146101af578063f851a440146101df57610088565b80631598d67f1461008d5780634dfefc4b146100bd5780635bb12a1a146100ed57806376c07da41461011d575b600080fd5b6100a760048036036100a29190810190610b81565b6101fd565b6040516100b49190610dc7565b60405180910390f35b6100d760048036036100d29190810190610b58565b610250565b6040516100e49190610dc7565b60405180910390f35b61010760048036036101029190810190610b58565b6102eb565b6040516101149190610dc7565b60405180910390f35b61013760048036036101329190810190610bbd565b6103d8565b6040516101449190610dc7565b60405180910390f35b61016760048036036101629190810190610b58565b610503565b6040516101749190610e20565b60405180910390f35b61019760048036036101929190810190610b58565b610668565b6040516101a693929190610de2565b60405180910390f35b6101c960048036036101c49190810190610c11565b610801565b6040516101d69190610dc7565b60405180910390f35b6101e7610975565b6040516101f49190610dac565b60405180910390f35b600081600160008573ffffffffffffffffffffffffffffffffffffffff1673ffffffffffffffffffffffffffffffffffffffff168152602001908152602001600020600301819055506001905092915050565b60008073ffffffffffffffffffffffffffffffffffffffff16600160008473ffffffffffffffffffffffffffffffffffffffff1673ffffffffffffffffffffffffffffffffffffffff16815260200190815260200160002060020160009054906101000a900473ffffffffffffffffffffffffffffffffffffffff1673ffffffffffffffffffffffffffffffffffffffff1614159050919050565b60008060009054906101000a900473ffffffffffffffffffffffffffffffffffffffff1673ffffffffffffffffffffffffffffffffffffffff163373ffffffffffffffffffffffffffffffffffffffff161461034657600080fd5b600160008373ffffffffffffffffffffffffffffffffffffffff1673ffffffffffffffffffffffffffffffffffffffff16815260200190815260200160002060008082016000610396919061099a565b60018201600090556002820160006101000a81549073ffffffffffffffffffffffffffffffffffffffff02191690556003820160009055505060019050919050565b600082600160003373ffffffffffffffffffffffffffffffffffffffff1673ffffffffffffffffffffffffffffffffffffffff16815260200190815260200160002060000190805190602001906104309291906109e2565b5033600160003373ffffffffffffffffffffffffffffffffffffffff1673ffffffffffffffffffffffffffffffffffffffff16815260200190815260200160002060020160006101000a81548173ffffffffffffffffffffffffffffffffffffffff021916908373ffffffffffffffffffffffffffffffffffffffff16021790555081600160003373ffffffffffffffffffffffffffffffffffffffff1673ffffffffffffffffffffffffffffffffffffffff168152602001908152602001600020600101819055506001905092915050565b61050b610a62565b600160008373ffffffffffffffffffffffffffffffffffffffff1673ffffffffffffffffffffffffffffffffffffffff168152602001908152602001600020604051806080016040529081600082018054600181600116156101000203166002900480601f0160208091040260200160405190810160405280929190818152602001828054600181600116156101000203166002900480156105ee5780601f106105c3576101008083540402835291602001916105ee565b820191906000526020600020905b8154815290600101906020018083116105d157829003601f168201915b50505050508152602001600182015481526020016002820160009054906101000a900473ffffffffffffffffffffffffffffffffffffffff1673ffffffffffffffffffffffffffffffffffffffff1673ffffffffffffffffffffffffffffffffffffffff1681526020016003820154815250509050919050565b6060600080600160008573ffffffffffffffffffffffffffffffffffffffff1673ffffffffffffffffffffffffffffffffffffffff168152602001908152602001600020600001600160008673ffffffffffffffffffffffffffffffffffffffff1673ffffffffffffffffffffffffffffffffffffffff16815260200190815260200160002060010154600160008773ffffffffffffffffffffffffffffffffffffffff1673ffffffffffffffffffffffffffffffffffffffff16815260200190815260200160002060020160009054906101000a900473ffffffffffffffffffffffffffffffffffffffff16828054600181600116156101000203166002900480601f0160208091040260200160405190810160405280929190818152602001828054600181600116156101000203166002900480156107ea5780601f106107bf576101008083540402835291602001916107ea565b820191906000526020600020905b8154815290600101906020018083116107cd57829003601f168201915b505050505092508090509250925092509193909250565b600084600160003373ffffffffffffffffffffffffffffffffffffffff1673ffffffffffffffffffffffffffffffffffffffff16815260200190815260200160002060000190805190602001906108599291906109e2565b5083600160003373ffffffffffffffffffffffffffffffffffffffff1673ffffffffffffffffffffffffffffffffffffffff1681526020019081526020016000206001018190555082600160003373ffffffffffffffffffffffffffffffffffffffff1673ffffffffffffffffffffffffffffffffffffffff16815260200190815260200160002060020160006101000a81548173ffffffffffffffffffffffffffffffffffffffff021916908373ffffffffffffffffffffffffffffffffffffffff16021790555081600160003373ffffffffffffffffffffffffffffffffffffffff1673ffffffffffffffffffffffffffffffffffffffff1681526020019081526020016000206003018190555060019050949350505050565b6000809054906101000a900473ffffffffffffffffffffffffffffffffffffffff1681565b50805460018160011615610100020316600290046000825580601f106109c057506109df565b601f0160209004906000526020600020908101906109de9190610aa0565b5b50565b828054600181600116156101000203166002900490600052602060002090601f016020900481019282601f10610a2357805160ff1916838001178555610a51565b82800160010185558215610a51579182015b82811115610a50578251825591602001919060010190610a35565b5b509050610a5e9190610aa0565b5090565b60405180608001604052806060815260200160008152602001600073ffffffffffffffffffffffffffffffffffffffff168152602001600081525090565b610ac291905b80821115610abe576000816000905550600101610aa6565b5090565b90565b600081359050610ad481610f80565b92915050565b600081359050610ae981610f97565b92915050565b600082601f830112610b0057600080fd5b8135610b13610b0e82610e6f565b610e42565b91508082526020830160208301858383011115610b2f57600080fd5b610b3a838284610f2d565b50505092915050565b600081359050610b5281610fae565b92915050565b600060208284031215610b6a57600080fd5b6000610b7884828501610ac5565b91505092915050565b60008060408385031215610b9457600080fd5b6000610ba285828601610ac5565b9250506020610bb385828601610b43565b9150509250929050565b60008060408385031215610bd057600080fd5b600083013567ffffffffffffffff811115610bea57600080fd5b610bf685828601610aef565b9250506020610c0785828601610b43565b9150509250929050565b60008060008060808587031215610c2757600080fd5b600085013567ffffffffffffffff811115610c4157600080fd5b610c4d87828801610aef565b9450506020610c5e87828801610b43565b9350506040610c6f87828801610ada565b9250506060610c8087828801610b43565b91505092959194509250565b610c9581610ee5565b82525050565b610ca481610ed3565b82525050565b610cb381610ef7565b82525050565b6000610cc482610ea6565b610cce8185610ec2565b9350610cde818560208601610f3c565b610ce781610f6f565b840191505092915050565b6000610cfd82610e9b565b610d078185610eb1565b9350610d17818560208601610f3c565b610d2081610f6f565b840191505092915050565b60006080830160008301518482036000860152610d488282610cf2565b9150506020830151610d5d6020860182610d8e565b506040830151610d706040860182610c8c565b506060830151610d836060860182610d8e565b508091505092915050565b610d9781610f23565b82525050565b610da681610f23565b82525050565b6000602082019050610dc16000830184610c9b565b92915050565b6000602082019050610ddc6000830184610caa565b92915050565b60006060820190508181036000830152610dfc8186610cb9565b9050610e0b6020830185610d9d565b610e186040830184610c9b565b949350505050565b60006020820190508181036000830152610e3a8184610d2b565b905092915050565b6000604051905081810181811067ffffffffffffffff82111715610e6557600080fd5b8060405250919050565b600067ffffffffffffffff821115610e8657600080fd5b601f19601f8301169050602081019050919050565b600081519050919050565b600081519050919050565b600082825260208201905092915050565b600082825260208201905092915050565b6000610ede82610f03565b9050919050565b6000610ef082610f03565b9050919050565b60008115159050919050565b600073ffffffffffffffffffffffffffffffffffffffff82169050919050565b6000819050919050565b82818337600083830152505050565b60005b83811015610f5a578082015181840152602081019050610f3f565b83811115610f69576000848401525b50505050565b6000601f19601f8301169050919050565b610f8981610ed3565b8114610f9457600080fd5b50565b610fa081610ee5565b8114610fab57600080fd5b50565b610fb781610f23565b8114610fc257600080fd5b5056fea365627a7a72315820a3d4b69387fef171993bf58199613fab9bdedc0228cae597a436e9db32d267dd6c6578706572696d656e74616cf564736f6c634300050c0040",
  "source": "pragma solidity ^0.5.12;\npragma experimental ABIEncoderV2;\n\ncontract Cplayer {\n  address public admin;\n\n  constructor() public {\n    admin = msg.sender;\n  }\n\n  modifier onlyadmin(){\n    require(msg.sender == admin);\n     _;\n  }\n\n  // We declare a new type called player, which is a structure (struct) that represents a user’s details.\n  struct player {\n    string name;\n    uint phoneNumber;\n    address payable Paddress;\n    uint id;\n  }\n\n  // This is similar to CREATE TABLE players (`address` varchar(32) NOT NULL,  PRIMARY KEY  (`address`) …);\n  mapping(address => player) players;\n\n  // CREATE\n  function addPlayer(string memory _name, uint256 _phonenumber) public returns (bool) {\n    players[msg.sender].name = _name;\n    players[msg.sender].Paddress = msg.sender;\n    players[msg.sender].phoneNumber = _phonenumber;\n    return true;\n  }\n\n  // READ\n  function findPlayer(address _address) public view returns (string memory, uint, address) {\n    return (players[_address].name, players[_address].phoneNumber, players[_address].Paddress);\n  }\n\n  function exist(address _address) public view returns (bool) {\n    return (players[_address].Paddress != 0x0000000000000000000000000000000000000000);\n  }\n\n  function getplayer(address _address) public view returns (player memory) {\n    return players[_address];\n  }\n\n  // UPDATE\n  function editPlayer(string memory _name, uint256 _phonenumber, address payable _address, uint256 _id) public returns (bool) {\n    players[msg.sender].name = _name;\n    players[msg.sender].phoneNumber = _phonenumber;\n    players[msg.sender].Paddress = _address;\n    players[msg.sender].id = _id;\n    return true;\n  }\n\n  // Function overloading\n  function editPlayer(address _address, uint256 _id) public returns (bool) {\n    players[_address].id = _id;\n    return true;\n  }\n\n  // DELETE\n  function removePlayer(address _address) public onlyadmin returns (bool) {\n    delete players[_address];\n    return true;\n  }\n}\n\ninterface Itontine {\n  function join() external payable returns (bool);\n  function ping() external returns (bool);\n  function eliminate(address a) external returns (bool);\n  function claimReward() external returns (bool);\n  event NewActivePlayerEv(address _address, uint time);\n  event EliminatedPlayerEv(address _address);\n}\n\ncontract Ctontine is Itontine {\n  mapping (address => uint256 ) public Tpension;\n  Cplayer.player[] public active_players;\n  Cplayer.player[] public eliminated_players;\n  mapping (address => uint) public ping_time;\n  uint256 public Lindex;\n  Cplayer Tplayer;\n\n  constructor(address _CplayerAddress) public {\n    Tplayer = Cplayer(_CplayerAddress);\n  }\n\n  function join() public payable returns(bool) {\n    require(Tplayer.exist(msg.sender), \"player doesn't exist\");\n    require(msg.value >= 1 ether && Tpension[msg.sender] == 0, \"send higher pension\");\n    Tpension[msg.sender] = msg.value;\n    Tplayer.editPlayer(msg.sender, active_players.length); // Make this ID\n    active_players.push(Tplayer.getplayer(msg.sender));\n    Lindex += (active_players.length - 1);\n    ping_time[msg.sender] = now;\n    emit NewActivePlayerEv(msg.sender, now);\n    return true;\n  }\n\n  function ping() external returns(bool) {\n    ping_time[msg.sender] = now;\n    return true;\n  }\n\n  function eliminate(address PlayerAddress) external  returns(bool) {\n    // Ensure that we can eliminate only players who didn’t ping the contract within the last 24 hours.\n    require(now > ping_time[PlayerAddress] + 1 days);\n    delete Tpension[PlayerAddress]; \n    delete active_players[Tplayer.getplayer(PlayerAddress).id];\n    Lindex -= Tplayer.getplayer(PlayerAddress).id;\n    eliminated_players.push(Tplayer.getplayer(PlayerAddress));\n    Tplayer.editPlayer(msg.sender, 0);\n    // This will share the balance of the eliminated player between the remaining active players.\n    share_pension(PlayerAddress);\n    emit EliminatedPlayerEv(PlayerAddress);\n    return true;\n  }\n\n  function share_pension(address user) internal returns (bool) {\n    uint256 remainingPlayers = remaining_players();\n    for(uint256 i = 0; i < active_players.length; i++){\n      if (active_players[i].Paddress != 0x0000000000000000000000000000000000000000) {\n        Tpension[active_players[i].Paddress] = calcul(Tpension[user], remainingPlayers, 18);\n      }\n    }\n    return true;\n  }\n\n  function remaining_players() public view returns (uint256) {\n    return (active_players.length - eliminated_players.length);\n  }\n\n  function calcul(uint a, uint b, uint precision) public pure returns (uint) {\n    require(b != 0);\n    return a * (10 ** (precision)) / b;\n  }\n\n  function claimReward() external returns (bool) {\n    require(remaining_players() == 1);\n    active_players[Lindex].Paddress.transfer(address(this).balance);\n    return true;\n  }\n}",
  "sourcePath": "/home/allen/my-files/bc-by-exmaple-book/5.3-tontine/contracts/Tontine.sol",
  "compiler": {
    "name": "solc",
    "version": "0.5.12+commit.7709ece9.Emscripten.clang"
  },
  "schemaVersion": "3.0.19",
  "updatedAt": "2019-11-25T09:25:38.460Z",
  "networkType": "ethereum",
  "devdoc": {
    "methods": {}
  },
  "userdoc": {
    "methods": {}
  }
}