{
  "contractName": "Ctontine",
  "abi": [
    {
      "inputs": [
        {
          "internalType": "address",
          "name": "_CplayerAddress",
          "type": "address"
        }
      ],
      "payable": false,
      "stateMutability": "nonpayable",
      "type": "constructor"
    },
    {
      "anonymous": false,
      "inputs": [
        {
          "indexed": false,
          "internalType": "address",
          "name": "_address",
          "type": "address"
        }
      ],
      "name": "EliminatedPlayerEv",
      "type": "event"
    },
    {
      "anonymous": false,
      "inputs": [
        {
          "indexed": false,
          "internalType": "address",
          "name": "_address",
          "type": "address"
        },
        {
          "indexed": false,
          "internalType": "uint256",
          "name": "time",
          "type": "uint256"
        }
      ],
      "name": "NewActivePlayerEv",
      "type": "event"
    },
    {
      "constant": true,
      "inputs": [],
      "name": "Lindex",
      "outputs": [
        {
          "internalType": "uint256",
          "name": "",
          "type": "uint256"
        }
      ],
      "payable": false,
      "stateMutability": "view",
      "type": "function"
    },
    {
      "constant": true,
      "inputs": [
        {
          "internalType": "address",
          "name": "",
          "type": "address"
        }
      ],
      "name": "Tpension",
      "outputs": [
        {
          "internalType": "uint256",
          "name": "",
          "type": "uint256"
        }
      ],
      "payable": false,
      "stateMutability": "view",
      "type": "function"
    },
    {
      "constant": true,
      "inputs": [
        {
          "internalType": "uint256",
          "name": "",
          "type": "uint256"
        }
      ],
      "name": "active_players",
      "outputs": [
        {
          "internalType": "string",
          "name": "name",
          "type": "string"
        },
        {
          "internalType": "uint256",
          "name": "phoneNumber",
          "type": "uint256"
        },
        {
          "internalType": "address payable",
          "name": "Paddress",
          "type": "address"
        },
        {
          "internalType": "uint256",
          "name": "id",
          "type": "uint256"
        }
      ],
      "payable": false,
      "stateMutability": "view",
      "type": "function"
    },
    {
      "constant": true,
      "inputs": [
        {
          "internalType": "uint256",
          "name": "",
          "type": "uint256"
        }
      ],
      "name": "eliminated_players",
      "outputs": [
        {
          "internalType": "string",
          "name": "name",
          "type": "string"
        },
        {
          "internalType": "uint256",
          "name": "phoneNumber",
          "type": "uint256"
        },
        {
          "internalType": "address payable",
          "name": "Paddress",
          "type": "address"
        },
        {
          "internalType": "uint256",
          "name": "id",
          "type": "uint256"
        }
      ],
      "payable": false,
      "stateMutability": "view",
      "type": "function"
    },
    {
      "constant": true,
      "inputs": [
        {
          "internalType": "address",
          "name": "",
          "type": "address"
        }
      ],
      "name": "ping_time",
      "outputs": [
        {
          "internalType": "uint256",
          "name": "",
          "type": "uint256"
        }
      ],
      "payable": false,
      "stateMutability": "view",
      "type": "function"
    },
    {
      "constant": false,
      "inputs": [],
      "name": "join",
      "outputs": [
        {
          "internalType": "bool",
          "name": "",
          "type": "bool"
        }
      ],
      "payable": true,
      "stateMutability": "payable",
      "type": "function"
    },
    {
      "constant": false,
      "inputs": [],
      "name": "ping",
      "outputs": [
        {
          "internalType": "bool",
          "name": "",
          "type": "bool"
        }
      ],
      "payable": false,
      "stateMutability": "nonpayable",
      "type": "function"
    },
    {
      "constant": false,
      "inputs": [
        {
          "internalType": "address",
          "name": "PlayerAddress",
          "type": "address"
        }
      ],
      "name": "eliminate",
      "outputs": [
        {
          "internalType": "bool",
          "name": "",
          "type": "bool"
        }
      ],
      "payable": false,
      "stateMutability": "nonpayable",
      "type": "function"
    },
    {
      "constant": true,
      "inputs": [],
      "name": "remaining_players",
      "outputs": [
        {
          "internalType": "uint256",
          "name": "",
          "type": "uint256"
        }
      ],
      "payable": false,
      "stateMutability": "view",
      "type": "function"
    },
    {
      "constant": true,
      "inputs": [
        {
          "internalType": "uint256",
          "name": "a",
          "type": "uint256"
        },
        {
          "internalType": "uint256",
          "name": "b",
          "type": "uint256"
        },
        {
          "internalType": "uint256",
          "name": "precision",
          "type": "uint256"
        }
      ],
      "name": "calcul",
      "outputs": [
        {
          "internalType": "uint256",
          "name": "",
          "type": "uint256"
        }
      ],
      "payable": false,
      "stateMutability": "pure",
      "type": "function"
    },
    {
      "constant": false,
      "inputs": [],
      "name": "claimReward",
      "outputs": [
        {
          "internalType": "bool",
          "name": "",
          "type": "bool"
        }
      ],
      "payable": false,
      "stateMutability": "nonpayable",
      "type": "function"
    }
  ],
  "bytecode": "0x60806040523480156200001157600080fd5b506040516200199d3803806200199d833981810160405262000037919081019062000096565b80600560006101000a81548173ffffffffffffffffffffffffffffffffffffffff021916908373ffffffffffffffffffffffffffffffffffffffff1602179055505062000110565b6000815190506200009081620000f6565b92915050565b600060208284031215620000a957600080fd5b6000620000b9848285016200007f565b91505092915050565b6000620000cf82620000d6565b9050919050565b600073ffffffffffffffffffffffffffffffffffffffff82169050919050565b6200010181620000c2565b81146200010d57600080fd5b50565b61187d80620001206000396000f3fe60806040526004361061009c5760003560e01c8063854742ae11610064578063854742ae146101b15780638f6d93b7146101ee5780639a8f411f1461022e578063b688a3631461026b578063b88a802f14610289578063d7dc32e1146102b45761009c565b80630119ada7146100a15780635c36b186146100de5780636be98865146101095780636fe2df87146101345780638021006514610171575b600080fd5b3480156100ad57600080fd5b506100c860048036036100c3919081019061131b565b6102df565b6040516100d591906115c1565b60405180910390f35b3480156100ea57600080fd5b506100f36107a1565b60405161010091906115c1565b60405180910390f35b34801561011557600080fd5b5061011e6107ee565b60405161012b9190611668565b60405180910390f35b34801561014057600080fd5b5061015b600480360361015691908101906113d7565b610802565b6040516101689190611668565b60405180910390f35b34801561017d57600080fd5b50610198600480360361019391908101906113ae565b610829565b6040516101a894939291906115dc565b60405180910390f35b3480156101bd57600080fd5b506101d860048036036101d3919081019061131b565b61091e565b6040516101e59190611668565b60405180910390f35b3480156101fa57600080fd5b50610215600480360361021091908101906113ae565b610936565b60405161022594939291906115dc565b60405180910390f35b34801561023a57600080fd5b506102556004803603610250919081019061131b565b610a2b565b6040516102629190611668565b60405180910390f35b610273610a43565b60405161028091906115c1565b60405180910390f35b34801561029557600080fd5b5061029e610eaf565b6040516102ab91906115c1565b60405180910390f35b3480156102c057600080fd5b506102c9610f6a565b6040516102d69190611668565b60405180910390f35b600062015180600360008473ffffffffffffffffffffffffffffffffffffffff1673ffffffffffffffffffffffffffffffffffffffff1681526020019081526020016000205401421161033157600080fd5b6000808373ffffffffffffffffffffffffffffffffffffffff1673ffffffffffffffffffffffffffffffffffffffff168152602001908152602001600020600090556001600560009054906101000a900473ffffffffffffffffffffffffffffffffffffffff1673ffffffffffffffffffffffffffffffffffffffff166393a21627846040518263ffffffff1660e01b81526004016103d09190611539565b60006040518083038186803b1580156103e857600080fd5b505afa1580156103fc573d6000803e3d6000fd5b505050506040513d6000823e3d601f19601f82011682018060405250610425919081019061136d565b606001518154811061043357fe5b90600052602060002090600402016000808201600061045291906110e5565b60018201600090556002820160006101000a81549073ffffffffffffffffffffffffffffffffffffffff021916905560038201600090555050600560009054906101000a900473ffffffffffffffffffffffffffffffffffffffff1673ffffffffffffffffffffffffffffffffffffffff166393a21627836040518263ffffffff1660e01b81526004016104e69190611539565b60006040518083038186803b1580156104fe57600080fd5b505afa158015610512573d6000803e3d6000fd5b505050506040513d6000823e3d601f19601f8201168201806040525061053b919081019061136d565b606001516004600082825403925050819055506002600560009054906101000a900473ffffffffffffffffffffffffffffffffffffffff1673ffffffffffffffffffffffffffffffffffffffff166393a21627846040518263ffffffff1660e01b81526004016105ab9190611539565b60006040518083038186803b1580156105c357600080fd5b505afa1580156105d7573d6000803e3d6000fd5b505050506040513d6000823e3d601f19601f82011682018060405250610600919081019061136d565b90806001815401808255809150509060018203906000526020600020906004020160009091929091909150600082015181600001908051906020019061064792919061112d565b506020820151816001015560408201518160020160006101000a81548173ffffffffffffffffffffffffffffffffffffffff021916908373ffffffffffffffffffffffffffffffffffffffff16021790555060608201518160030155505050600560009054906101000a900473ffffffffffffffffffffffffffffffffffffffff1673ffffffffffffffffffffffffffffffffffffffff16631598d67f3360006040518363ffffffff1660e01b815260040161070492919061156f565b602060405180830381600087803b15801561071e57600080fd5b505af1158015610732573d6000803e3d6000fd5b505050506040513d601f19601f820116820180604052506107569190810190611344565b5061076082610f70565b507fcd52b41ece932868129afda1bd83c1193623b4b7f3b48c567accd2a67d7f5009826040516107909190611539565b60405180910390a160019050919050565b600042600360003373ffffffffffffffffffffffffffffffffffffffff1673ffffffffffffffffffffffffffffffffffffffff168152602001908152602001600020819055506001905090565b600060028054905060018054905003905090565b60008083141561081157600080fd5b8282600a0a85028161081f57fe5b0490509392505050565b6002818154811061083657fe5b9060005260206000209060040201600091509050806000018054600181600116156101000203166002900480601f0160208091040260200160405190810160405280929190818152602001828054600181600116156101000203166002900480156108e25780601f106108b7576101008083540402835291602001916108e2565b820191906000526020600020905b8154815290600101906020018083116108c557829003601f168201915b5050505050908060010154908060020160009054906101000a900473ffffffffffffffffffffffffffffffffffffffff16908060030154905084565b60036020528060005260406000206000915090505481565b6001818154811061094357fe5b9060005260206000209060040201600091509050806000018054600181600116156101000203166002900480601f0160208091040260200160405190810160405280929190818152602001828054600181600116156101000203166002900480156109ef5780601f106109c4576101008083540402835291602001916109ef565b820191906000526020600020905b8154815290600101906020018083116109d257829003601f168201915b5050505050908060010154908060020160009054906101000a900473ffffffffffffffffffffffffffffffffffffffff16908060030154905084565b60006020528060005260406000206000915090505481565b6000600560009054906101000a900473ffffffffffffffffffffffffffffffffffffffff1673ffffffffffffffffffffffffffffffffffffffff16634dfefc4b336040518263ffffffff1660e01b8152600401610aa09190611554565b60206040518083038186803b158015610ab857600080fd5b505afa158015610acc573d6000803e3d6000fd5b505050506040513d601f19601f82011682018060405250610af09190810190611344565b610b2f576040517f08c379a0000000000000000000000000000000000000000000000000000000008152600401610b2690611648565b60405180910390fd5b670de0b6b3a76400003410158015610b85575060008060003373ffffffffffffffffffffffffffffffffffffffff1673ffffffffffffffffffffffffffffffffffffffff16815260200190815260200160002054145b610bc4576040517f08c379a0000000000000000000000000000000000000000000000000000000008152600401610bbb90611628565b60405180910390fd5b346000803373ffffffffffffffffffffffffffffffffffffffff1673ffffffffffffffffffffffffffffffffffffffff16815260200190815260200160002081905550600560009054906101000a900473ffffffffffffffffffffffffffffffffffffffff1673ffffffffffffffffffffffffffffffffffffffff16631598d67f336001805490506040518363ffffffff1660e01b8152600401610c69929190611598565b602060405180830381600087803b158015610c8357600080fd5b505af1158015610c97573d6000803e3d6000fd5b505050506040513d601f19601f82011682018060405250610cbb9190810190611344565b506001600560009054906101000a900473ffffffffffffffffffffffffffffffffffffffff1673ffffffffffffffffffffffffffffffffffffffff166393a21627336040518263ffffffff1660e01b8152600401610d199190611554565b60006040518083038186803b158015610d3157600080fd5b505afa158015610d45573d6000803e3d6000fd5b505050506040513d6000823e3d601f19601f82011682018060405250610d6e919081019061136d565b908060018154018082558091505090600182039060005260206000209060040201600090919290919091506000820151816000019080519060200190610db592919061112d565b506020820151816001015560408201518160020160006101000a81548173ffffffffffffffffffffffffffffffffffffffff021916908373ffffffffffffffffffffffffffffffffffffffff16021790555060608201518160030155505050600180805490500360046000828254019250508190555042600360003373ffffffffffffffffffffffffffffffffffffffff1673ffffffffffffffffffffffffffffffffffffffff168152602001908152602001600020819055507fb0dbc4b7c9e2902ec1f1cce791e77364039b37854011c66691b63afddbbb85bd3342604051610ea0929190611598565b60405180910390a16001905090565b60006001610ebb6107ee565b14610ec557600080fd5b600160045481548110610ed457fe5b906000526020600020906004020160020160009054906101000a900473ffffffffffffffffffffffffffffffffffffffff1673ffffffffffffffffffffffffffffffffffffffff166108fc3073ffffffffffffffffffffffffffffffffffffffff16319081150290604051600060405180830381858888f19350505050158015610f62573d6000803e3d6000fd5b506001905090565b60045481565b600080610f7b6107ee565b905060008090505b6001805490508110156110da57600073ffffffffffffffffffffffffffffffffffffffff1660018281548110610fb557fe5b906000526020600020906004020160020160009054906101000a900473ffffffffffffffffffffffffffffffffffffffff1673ffffffffffffffffffffffffffffffffffffffff16146110cd5761104c6000808673ffffffffffffffffffffffffffffffffffffffff1673ffffffffffffffffffffffffffffffffffffffff16815260200190815260200160002054836012610802565b6000806001848154811061105c57fe5b906000526020600020906004020160020160009054906101000a900473ffffffffffffffffffffffffffffffffffffffff1673ffffffffffffffffffffffffffffffffffffffff1673ffffffffffffffffffffffffffffffffffffffff168152602001908152602001600020819055505b8080600101915050610f83565b506001915050919050565b50805460018160011615610100020316600290046000825580601f1061110b575061112a565b601f01602090049060005260206000209081019061112991906111ad565b5b50565b828054600181600116156101000203166002900490600052602060002090601f016020900481019282601f1061116e57805160ff191683800117855561119c565b8280016001018555821561119c579182015b8281111561119b578251825591602001919060010190611180565b5b5090506111a991906111ad565b5090565b6111cf91905b808211156111cb5760008160009055506001016111b3565b5090565b90565b6000813590506111e1816117de565b92915050565b6000815190506111f6816117f5565b92915050565b60008151905061120b8161180c565b92915050565b600082601f83011261122257600080fd5b8151611235611230826116b0565b611683565b9150808252602083016020830185838301111561125157600080fd5b61125c83828461179a565b50505092915050565b60006080828403121561127757600080fd5b6112816080611683565b9050600082015167ffffffffffffffff81111561129d57600080fd5b6112a984828501611211565b60008301525060206112bd84828501611306565b60208301525060406112d1848285016111e7565b60408301525060606112e584828501611306565b60608301525092915050565b60008135905061130081611823565b92915050565b60008151905061131581611823565b92915050565b60006020828403121561132d57600080fd5b600061133b848285016111d2565b91505092915050565b60006020828403121561135657600080fd5b6000611364848285016111fc565b91505092915050565b60006020828403121561137f57600080fd5b600082015167ffffffffffffffff81111561139957600080fd5b6113a584828501611265565b91505092915050565b6000602082840312156113c057600080fd5b60006113ce848285016112f1565b91505092915050565b6000806000606084860312156113ec57600080fd5b60006113fa868287016112f1565b935050602061140b868287016112f1565b925050604061141c868287016112f1565b9150509250925092565b61142f81611752565b82525050565b61143e8161170a565b82525050565b61144d816116f8565b82525050565b61145c8161171c565b82525050565b61146b81611764565b82525050565b600061147c826116dc565b61148681856116e7565b935061149681856020860161179a565b61149f816117cd565b840191505092915050565b60006114b76013836116e7565b91507f73656e64206869676865722070656e73696f6e000000000000000000000000006000830152602082019050919050565b60006114f76014836116e7565b91507f706c6179657220646f65736e27742065786973740000000000000000000000006000830152602082019050919050565b61153381611748565b82525050565b600060208201905061154e6000830184611444565b92915050565b60006020820190506115696000830184611426565b92915050565b60006040820190506115846000830185611426565b6115916020830184611462565b9392505050565b60006040820190506115ad6000830185611426565b6115ba602083018461152a565b9392505050565b60006020820190506115d66000830184611453565b92915050565b600060808201905081810360008301526115f68187611471565b9050611605602083018661152a565b6116126040830185611435565b61161f606083018461152a565b95945050505050565b60006020820190508181036000830152611641816114aa565b9050919050565b60006020820190508181036000830152611661816114ea565b9050919050565b600060208201905061167d600083018461152a565b92915050565b6000604051905081810181811067ffffffffffffffff821117156116a657600080fd5b8060405250919050565b600067ffffffffffffffff8211156116c757600080fd5b601f19601f8301169050602081019050919050565b600081519050919050565b600082825260208201905092915050565b600061170382611728565b9050919050565b600061171582611728565b9050919050565b60008115159050919050565b600073ffffffffffffffffffffffffffffffffffffffff82169050919050565b6000819050919050565b600061175d82611776565b9050919050565b600061176f82611748565b9050919050565b600061178182611788565b9050919050565b600061179382611728565b9050919050565b60005b838110156117b857808201518184015260208101905061179d565b838111156117c7576000848401525b50505050565b6000601f19601f8301169050919050565b6117e7816116f8565b81146117f257600080fd5b50565b6117fe8161170a565b811461180957600080fd5b50565b6118158161171c565b811461182057600080fd5b50565b61182c81611748565b811461183757600080fd5b5056fea365627a7a72315820ce78f83aac95f4f557dbdebe6af50bc94df9893c62223c8b7c747f56a2026e6c6c6578706572696d656e74616cf564736f6c634300050c0040",
  "source": "pragma solidity ^0.5.12;\npragma experimental ABIEncoderV2;\n\ncontract Cplayer {\n  address public admin;\n\n  constructor() public {\n    admin = msg.sender;\n  }\n\n  modifier onlyadmin(){\n    require(msg.sender == admin);\n     _;\n  }\n\n  // We declare a new type called player, which is a structure (struct) that represents a user’s details.\n  struct player {\n    string name;\n    uint phoneNumber;\n    address payable Paddress;\n    uint id;\n  }\n\n  // This is similar to CREATE TABLE players (`address` varchar(32) NOT NULL,  PRIMARY KEY  (`address`) …);\n  mapping(address => player) players;\n\n  // CREATE\n  function addPlayer(string memory _name, uint256 _phonenumber) public returns (bool) {\n    players[msg.sender].name = _name;\n    players[msg.sender].Paddress = msg.sender;\n    players[msg.sender].phoneNumber = _phonenumber;\n    return true;\n  }\n\n  // READ\n  function findPlayer(address _address) public view returns (string memory, uint, address) {\n    return (players[_address].name, players[_address].phoneNumber, players[_address].Paddress);\n  }\n\n  function exist(address _address) public view returns (bool) {\n    return (players[_address].Paddress != 0x0000000000000000000000000000000000000000);\n  }\n\n  function getplayer(address _address) public view returns (player memory) {\n    return players[_address];\n  }\n\n  // UPDATE\n  function editPlayer(string memory _name, uint256 _phonenumber, address payable _address, uint256 _id) public returns (bool) {\n    players[msg.sender].name = _name;\n    players[msg.sender].phoneNumber = _phonenumber;\n    players[msg.sender].Paddress = _address;\n    players[msg.sender].id = _id;\n    return true;\n  }\n\n  // Function overloading\n  function editPlayer(address _address, uint256 _id) public returns (bool) {\n    players[_address].id = _id;\n    return true;\n  }\n\n  // DELETE\n  function removePlayer(address _address) public onlyadmin returns (bool) {\n    delete players[_address];\n    return true;\n  }\n}\n\ninterface Itontine {\n  function join() external payable returns (bool);\n  function ping() external returns (bool);\n  function eliminate(address a) external returns (bool);\n  function claimReward() external returns (bool);\n  event NewActivePlayerEv(address _address, uint time);\n  event EliminatedPlayerEv(address _address);\n}\n\ncontract Ctontine is Itontine {\n  mapping (address => uint256 ) public Tpension;\n  Cplayer.player[] public active_players;\n  Cplayer.player[] public eliminated_players;\n  mapping (address => uint) public ping_time;\n  uint256 public Lindex;\n  Cplayer Tplayer;\n\n  constructor(address _CplayerAddress) public {\n    Tplayer = Cplayer(_CplayerAddress);\n  }\n\n  function join() public payable returns(bool) {\n    require(Tplayer.exist(msg.sender), \"player doesn't exist\");\n    require(msg.value >= 1 ether && Tpension[msg.sender] == 0, \"send higher pension\");\n    Tpension[msg.sender] = msg.value;\n    Tplayer.editPlayer(msg.sender, active_players.length); // Make this ID\n    active_players.push(Tplayer.getplayer(msg.sender));\n    Lindex += (active_players.length - 1);\n    ping_time[msg.sender] = now;\n    emit NewActivePlayerEv(msg.sender, now);\n    return true;\n  }\n\n  function ping() external returns(bool) {\n    ping_time[msg.sender] = now;\n    return true;\n  }\n\n  function eliminate(address PlayerAddress) external  returns(bool) {\n    // Ensure that we can eliminate only players who didn’t ping the contract within the last 24 hours.\n    require(now > ping_time[PlayerAddress] + 1 days);\n    delete Tpension[PlayerAddress]; \n    delete active_players[Tplayer.getplayer(PlayerAddress).id];\n    Lindex -= Tplayer.getplayer(PlayerAddress).id;\n    eliminated_players.push(Tplayer.getplayer(PlayerAddress));\n    Tplayer.editPlayer(msg.sender, 0);\n    // This will share the balance of the eliminated player between the remaining active players.\n    share_pension(PlayerAddress);\n    emit EliminatedPlayerEv(PlayerAddress);\n    return true;\n  }\n\n  function share_pension(address user) internal returns (bool) {\n    uint256 remainingPlayers = remaining_players();\n    for(uint256 i = 0; i < active_players.length; i++){\n      if (active_players[i].Paddress != 0x0000000000000000000000000000000000000000) {\n        Tpension[active_players[i].Paddress] = calcul(Tpension[user], remainingPlayers, 18);\n      }\n    }\n    return true;\n  }\n\n  function remaining_players() public view returns (uint256) {\n    return (active_players.length - eliminated_players.length);\n  }\n\n  function calcul(uint a, uint b, uint precision) public pure returns (uint) {\n    require(b != 0);\n    return a * (10 ** (precision)) / b;\n  }\n\n  function claimReward() external returns (bool) {\n    require(remaining_players() == 1);\n    active_players[Lindex].Paddress.transfer(address(this).balance);\n    return true;\n  }\n}",
  "sourcePath": "/home/allen/my-files/bc-by-exmaple-book/5.3-tontine/contracts/Tontine.sol",
  "compiler": {
    "name": "solc",
    "version": "0.5.12+commit.7709ece9.Emscripten.clang"
  },
  "schemaVersion": "3.0.19",
  "updatedAt": "2019-11-25T09:25:38.446Z",
  "networkType": "ethereum",
  "devdoc": {
    "methods": {}
  },
  "userdoc": {
    "methods": {}
  }
}